{
  "_format": "hh-sol-artifact-1",
  "contractName": "Marketplace",
  "sourceName": "contracts/Marketplace.sol",
  "abi": [
    {
      "inputs": [
        {
          "internalType": "uint256",
          "name": "_feePercent",
          "type": "uint256"
        }
      ],
      "stateMutability": "nonpayable",
      "type": "constructor"
    },
    {
      "inputs": [],
      "name": "ReentrancyGuardReentrantCall",
      "type": "error"
    },
    {
      "anonymous": false,
      "inputs": [
        {
          "indexed": false,
          "internalType": "uint256",
          "name": "itemId",
          "type": "uint256"
        },
        {
          "indexed": true,
          "internalType": "address payable",
          "name": "seller",
          "type": "address"
        },
        {
          "indexed": true,
          "internalType": "contract IERC721",
          "name": "nft",
          "type": "address"
        },
        {
          "indexed": false,
          "internalType": "uint256",
          "name": "tokenId",
          "type": "uint256"
        },
        {
          "indexed": false,
          "internalType": "uint256",
          "name": "price",
          "type": "uint256"
        }
      ],
      "name": "ItemAdded",
      "type": "event"
    },
    {
      "anonymous": false,
      "inputs": [
        {
          "indexed": false,
          "internalType": "uint256",
          "name": "itemId",
          "type": "uint256"
        },
        {
          "indexed": true,
          "internalType": "address payable",
          "name": "seller",
          "type": "address"
        },
        {
          "indexed": true,
          "internalType": "address",
          "name": "buyer",
          "type": "address"
        },
        {
          "indexed": true,
          "internalType": "contract IERC721",
          "name": "nft",
          "type": "address"
        },
        {
          "indexed": false,
          "internalType": "uint256",
          "name": "tokenId",
          "type": "uint256"
        },
        {
          "indexed": false,
          "internalType": "uint256",
          "name": "price",
          "type": "uint256"
        }
      ],
      "name": "ItemSold",
      "type": "event"
    },
    {
      "inputs": [
        {
          "internalType": "contract IERC721",
          "name": "nftAddress",
          "type": "address"
        },
        {
          "internalType": "uint256",
          "name": "tokenId",
          "type": "uint256"
        },
        {
          "internalType": "uint256",
          "name": "price",
          "type": "uint256"
        }
      ],
      "name": "addItem",
      "outputs": [],
      "stateMutability": "nonpayable",
      "type": "function"
    },
    {
      "inputs": [],
      "name": "feeAccount",
      "outputs": [
        {
          "internalType": "address payable",
          "name": "",
          "type": "address"
        }
      ],
      "stateMutability": "view",
      "type": "function"
    },
    {
      "inputs": [],
      "name": "feePercent",
      "outputs": [
        {
          "internalType": "uint256",
          "name": "",
          "type": "uint256"
        }
      ],
      "stateMutability": "view",
      "type": "function"
    },
    {
      "inputs": [
        {
          "internalType": "uint256",
          "name": "itemId",
          "type": "uint256"
        }
      ],
      "name": "getPrice",
      "outputs": [
        {
          "internalType": "uint256",
          "name": "",
          "type": "uint256"
        }
      ],
      "stateMutability": "view",
      "type": "function"
    },
    {
      "inputs": [],
      "name": "itemCount",
      "outputs": [
        {
          "internalType": "uint256",
          "name": "",
          "type": "uint256"
        }
      ],
      "stateMutability": "view",
      "type": "function"
    },
    {
      "inputs": [
        {
          "internalType": "uint256",
          "name": "",
          "type": "uint256"
        }
      ],
      "name": "items",
      "outputs": [
        {
          "internalType": "uint256",
          "name": "itemId",
          "type": "uint256"
        },
        {
          "internalType": "contract IERC721",
          "name": "nftAddress",
          "type": "address"
        },
        {
          "internalType": "uint256",
          "name": "tokenID",
          "type": "uint256"
        },
        {
          "internalType": "uint256",
          "name": "price",
          "type": "uint256"
        },
        {
          "internalType": "address payable",
          "name": "seller",
          "type": "address"
        },
        {
          "internalType": "bool",
          "name": "isSold",
          "type": "bool"
        }
      ],
      "stateMutability": "view",
      "type": "function"
    },
    {
      "inputs": [
        {
          "internalType": "uint256",
          "name": "itemId",
          "type": "uint256"
        }
      ],
      "name": "purchaseItem",
      "outputs": [],
      "stateMutability": "payable",
      "type": "function"
    }
  ],
  "bytecode": "0x60c060405234801561001057600080fd5b506040516111f03803806111f0833981810160405281019061003291906100b7565b600160008190555080608081815250503373ffffffffffffffffffffffffffffffffffffffff1660a08173ffffffffffffffffffffffffffffffffffffffff1681525050506100e4565b600080fd5b6000819050919050565b61009481610081565b811461009f57600080fd5b50565b6000815190506100b18161008b565b92915050565b6000602082840312156100cd576100cc61007c565b5b60006100db848285016100a2565b91505092915050565b60805160a0516110d9610117600039600081816101bc01526107ae0152600081816101e601526106d401526110d96000f3fe6080604052600436106100705760003560e01c8063bfb231d21161004e578063bfb231d2146100f6578063c1b91dd914610138578063d38ea5bf14610161578063e75722301461017d57610070565b806365e17c9d146100755780636bfb0d01146100a05780637fd6f15c146100cb575b600080fd5b34801561008157600080fd5b5061008a6101ba565b6040516100979190610a3b565b60405180910390f35b3480156100ac57600080fd5b506100b56101de565b6040516100c29190610a6f565b60405180910390f35b3480156100d757600080fd5b506100e06101e4565b6040516100ed9190610a6f565b60405180910390f35b34801561010257600080fd5b5061011d60048036038101906101189190610abb565b610208565b60405161012f96959493929190610b62565b60405180910390f35b34801561014457600080fd5b5061015f600480360381019061015a9190610c13565b610291565b005b61017b60048036038101906101769190610abb565b61051d565b005b34801561018957600080fd5b506101a4600480360381019061019f9190610abb565b61098a565b6040516101b19190610a6f565b60405180910390f35b7f000000000000000000000000000000000000000000000000000000000000000081565b60015481565b7f000000000000000000000000000000000000000000000000000000000000000081565b60026020528060005260406000206000915090508060000154908060010160009054906101000a900473ffffffffffffffffffffffffffffffffffffffff16908060020154908060030154908060040160009054906101000a900473ffffffffffffffffffffffffffffffffffffffff16908060040160149054906101000a900460ff16905086565b6102996109aa565b600081116102dc576040517f08c379a00000000000000000000000000000000000000000000000000000000081526004016102d390610cc3565b60405180910390fd5b8273ffffffffffffffffffffffffffffffffffffffff166323b872dd3330856040518463ffffffff1660e01b815260040161031993929190610cf2565b600060405180830381600087803b15801561033357600080fd5b505af1158015610347573d6000803e3d6000fd5b505050506001600081548092919061035e90610d58565b91905055506040518060c0016040528060015481526020018473ffffffffffffffffffffffffffffffffffffffff1681526020018381526020018281526020013373ffffffffffffffffffffffffffffffffffffffff168152602001600015158152506002600060015481526020019081526020016000206000820151816000015560208201518160010160006101000a81548173ffffffffffffffffffffffffffffffffffffffff021916908373ffffffffffffffffffffffffffffffffffffffff160217905550604082015181600201556060820151816003015560808201518160040160006101000a81548173ffffffffffffffffffffffffffffffffffffffff021916908373ffffffffffffffffffffffffffffffffffffffff16021790555060a08201518160040160146101000a81548160ff0219169083151502179055509050508273ffffffffffffffffffffffffffffffffffffffff163373ffffffffffffffffffffffffffffffffffffffff167fd71dbd2faff21165702f7a922deab4c4f3d6a469f8b287416222002ab0454993600154858560405161050893929190610da0565b60405180910390a36105186109f0565b505050565b6105256109aa565b60008111801561053757506001548111155b610576576040517f08c379a000000000000000000000000000000000000000000000000000000000815260040161056d90610e23565b60405180910390fd5b600260008281526020019081526020016000206003015434146105ce576040517f08c379a00000000000000000000000000000000000000000000000000000000081526004016105c590610e8f565b60405180910390fd5b60006002600083815260200190815260200160002090508060040160149054906101000a900460ff1615610637576040517f08c379a000000000000000000000000000000000000000000000000000000000815260040161062e90610efb565b60405180910390fd5b8060010160009054906101000a900473ffffffffffffffffffffffffffffffffffffffff1673ffffffffffffffffffffffffffffffffffffffff166323b872dd303384600201546040518463ffffffff1660e01b815260040161069c93929190610cf2565b600060405180830381600087803b1580156106b657600080fd5b505af11580156106ca573d6000803e3d6000fd5b50505050600060647f000000000000000000000000000000000000000000000000000000000000000060646106ff9190610f1b565b836003015461070e9190610f4f565b6107189190610fc0565b905060008260040160009054906101000a900473ffffffffffffffffffffffffffffffffffffffff1673ffffffffffffffffffffffffffffffffffffffff168260405161076490611022565b60006040518083038185875af1925050503d80600081146107a1576040519150601f19603f3d011682016040523d82523d6000602084013e6107a6565b606091505b5050905060007f000000000000000000000000000000000000000000000000000000000000000073ffffffffffffffffffffffffffffffffffffffff168385600301546107f39190610f1b565b6040516107ff90611022565b60006040518083038185875af1925050503d806000811461083c576040519150601f19603f3d011682016040523d82523d6000602084013e610841565b606091505b5050905081801561084f5750805b61088e576040517f08c379a000000000000000000000000000000000000000000000000000000000815260040161088590611083565b60405180910390fd5b60018460040160146101000a81548160ff0219169083151502179055508360010160009054906101000a900473ffffffffffffffffffffffffffffffffffffffff1673ffffffffffffffffffffffffffffffffffffffff163373ffffffffffffffffffffffffffffffffffffffff168560040160009054906101000a900473ffffffffffffffffffffffffffffffffffffffff1673ffffffffffffffffffffffffffffffffffffffff167f341f1f9189f9fe657e10ddf17dbca6d71dbc1bc76481e1f2c74727810135e8de888860020154896003015460405161097393929190610da0565b60405180910390a4505050506109876109f0565b50565b600060026000838152602001908152602001600020600301549050919050565b6002600054036109e6576040517f3ee5aeb500000000000000000000000000000000000000000000000000000000815260040160405180910390fd5b6002600081905550565b6001600081905550565b600073ffffffffffffffffffffffffffffffffffffffff82169050919050565b6000610a25826109fa565b9050919050565b610a3581610a1a565b82525050565b6000602082019050610a506000830184610a2c565b92915050565b6000819050919050565b610a6981610a56565b82525050565b6000602082019050610a846000830184610a60565b92915050565b600080fd5b610a9881610a56565b8114610aa357600080fd5b50565b600081359050610ab581610a8f565b92915050565b600060208284031215610ad157610ad0610a8a565b5b6000610adf84828501610aa6565b91505092915050565b6000819050919050565b6000610b0d610b08610b03846109fa565b610ae8565b6109fa565b9050919050565b6000610b1f82610af2565b9050919050565b6000610b3182610b14565b9050919050565b610b4181610b26565b82525050565b60008115159050919050565b610b5c81610b47565b82525050565b600060c082019050610b776000830189610a60565b610b846020830188610b38565b610b916040830187610a60565b610b9e6060830186610a60565b610bab6080830185610a2c565b610bb860a0830184610b53565b979650505050505050565b6000610bce826109fa565b9050919050565b6000610be082610bc3565b9050919050565b610bf081610bd5565b8114610bfb57600080fd5b50565b600081359050610c0d81610be7565b92915050565b600080600060608486031215610c2c57610c2b610a8a565b5b6000610c3a86828701610bfe565b9350506020610c4b86828701610aa6565b9250506040610c5c86828701610aa6565b9150509250925092565b600082825260208201905092915050565b7f50726963652073686f756c642062652067726561746572207468616e20300000600082015250565b6000610cad601e83610c66565b9150610cb882610c77565b602082019050919050565b60006020820190508181036000830152610cdc81610ca0565b9050919050565b610cec81610bc3565b82525050565b6000606082019050610d076000830186610ce3565b610d146020830185610ce3565b610d216040830184610a60565b949350505050565b7f4e487b7100000000000000000000000000000000000000000000000000000000600052601160045260246000fd5b6000610d6382610a56565b91507fffffffffffffffffffffffffffffffffffffffffffffffffffffffffffffffff8203610d9557610d94610d29565b5b600182019050919050565b6000606082019050610db56000830186610a60565b610dc26020830185610a60565b610dcf6040830184610a60565b949350505050565b7f4974656d20696420696e76616c69640000000000000000000000000000000000600082015250565b6000610e0d600f83610c66565b9150610e1882610dd7565b602082019050919050565b60006020820190508181036000830152610e3c81610e00565b9050919050565b7f496e76616c696420507269636500000000000000000000000000000000000000600082015250565b6000610e79600d83610c66565b9150610e8482610e43565b602082019050919050565b60006020820190508181036000830152610ea881610e6c565b9050919050565b7f4974656d20616c726561647920736f6c64000000000000000000000000000000600082015250565b6000610ee5601183610c66565b9150610ef082610eaf565b602082019050919050565b60006020820190508181036000830152610f1481610ed8565b9050919050565b6000610f2682610a56565b9150610f3183610a56565b9250828203905081811115610f4957610f48610d29565b5b92915050565b6000610f5a82610a56565b9150610f6583610a56565b9250828202610f7381610a56565b91508282048414831517610f8a57610f89610d29565b5b5092915050565b7f4e487b7100000000000000000000000000000000000000000000000000000000600052601260045260246000fd5b6000610fcb82610a56565b9150610fd683610a56565b925082610fe657610fe5610f91565b5b828204905092915050565b600081905092915050565b50565b600061100c600083610ff1565b915061101782610ffc565b600082019050919050565b600061102d82610fff565b9150819050919050565b7f4661696c656420746f2073656e64206574686572000000000000000000000000600082015250565b600061106d601483610c66565b915061107882611037565b602082019050919050565b6000602082019050818103600083015261109c81611060565b905091905056fea2646970667358221220887bfb438981964a0d462085d35d4bb215e33e2e542e7269fa0f1cff1f9e5aed64736f6c634300081c0033",
  "linkReferences": {},
  "deployedLinkReferences": {}
}